{
  "_format": "hh-sol-artifact-1",
  "contractName": "FundraisePrediction",
  "sourceName": "contracts/FundraisePrediction.sol",
  "abi": [
    {
      "anonymous": false,
      "inputs": [
        {
          "indexed": true,
          "internalType": "bytes32",
          "name": "id",
          "type": "bytes32"
        },
        {
          "indexed": true,
          "internalType": "address",
          "name": "submitter",
          "type": "address"
        },
        {
          "indexed": false,
          "internalType": "uint8",
          "name": "score",
          "type": "uint8"
        },
        {
          "indexed": false,
          "internalType": "uint256",
          "name": "timestamp",
          "type": "uint256"
        }
      ],
      "name": "PredictionSubmitted",
      "type": "event"
    },
    {
      "inputs": [
        {
          "internalType": "bytes32",
          "name": "id",
          "type": "bytes32"
        }
      ],
      "name": "getPrediction",
      "outputs": [
        {
          "components": [
            {
              "internalType": "address",
              "name": "submitter",
              "type": "address"
            },
            {
              "internalType": "uint8",
              "name": "score",
              "type": "uint8"
            },
            {
              "internalType": "uint256",
              "name": "timestamp",
              "type": "uint256"
            },
            {
              "internalType": "bytes",
              "name": "proof",
              "type": "bytes"
            }
          ],
          "internalType": "struct FundraisePrediction.Prediction",
          "name": "prediction",
          "type": "tuple"
        }
      ],
      "stateMutability": "view",
      "type": "function"
    },
    {
      "inputs": [],
      "name": "getTotalPredictions",
      "outputs": [
        {
          "internalType": "uint256",
          "name": "count",
          "type": "uint256"
        }
      ],
      "stateMutability": "view",
      "type": "function"
    },
    {
      "inputs": [
        {
          "internalType": "bytes32",
          "name": "id",
          "type": "bytes32"
        }
      ],
      "name": "predictionExists",
      "outputs": [
        {
          "internalType": "bool",
          "name": "exists",
          "type": "bool"
        }
      ],
      "stateMutability": "view",
      "type": "function"
    },
    {
      "inputs": [
        {
          "internalType": "bytes32",
          "name": "",
          "type": "bytes32"
        }
      ],
      "name": "predictions",
      "outputs": [
        {
          "internalType": "address",
          "name": "submitter",
          "type": "address"
        },
        {
          "internalType": "uint8",
          "name": "score",
          "type": "uint8"
        },
        {
          "internalType": "uint256",
          "name": "timestamp",
          "type": "uint256"
        },
        {
          "internalType": "bytes",
          "name": "proof",
          "type": "bytes"
        }
      ],
      "stateMutability": "view",
      "type": "function"
    },
    {
      "inputs": [
        {
          "internalType": "bytes32",
          "name": "id",
          "type": "bytes32"
        },
        {
          "internalType": "uint8",
          "name": "score",
          "type": "uint8"
        },
        {
          "internalType": "bytes",
          "name": "proof",
          "type": "bytes"
        }
      ],
      "name": "submitPrediction",
      "outputs": [],
      "stateMutability": "nonpayable",
      "type": "function"
    },
    {
      "inputs": [],
      "name": "totalPredictions",
      "outputs": [
        {
          "internalType": "uint256",
          "name": "",
          "type": "uint256"
        }
      ],
      "stateMutability": "view",
      "type": "function"
    }
  ],
  "bytecode": "0x608060405234801561001057600080fd5b50610933806100206000396000f3fe608060405234801561001057600080fd5b50600436106100625760003560e01c8063121c16e4146100675780635c580061146100a75780635d9eaeaf146100b9578063779bd562146100dc578063b690a747146100e5578063dc6423ab146100fa575b600080fd5b61009261007536600461062c565b6000908152602081905260409020546001600160a01b0316151590565b60405190151581526020015b60405180910390f35b6001545b60405190815260200161009e565b6100cc6100c736600461062c565b61011a565b60405161009e949392919061068b565b6100ab60015481565b6100f86100f33660046106c5565b6101da565b005b61010d61010836600461062c565b6104ae565b60405161009e9190610754565b6000602081905290815260409020805460018201546002830180546001600160a01b03841694600160a01b90940460ff16939190610157906107a0565b80601f0160208091040260200160405190810160405280929190818152602001828054610183906107a0565b80156101d05780601f106101a5576101008083540402835291602001916101d0565b820191906000526020600020905b8154815290600101906020018083116101b357829003601f168201915b5050505050905084565b836102465760405162461bcd60e51b815260206004820152603160248201527f46756e64726169736550726564696374696f6e3a2070726564696374696f6e2060448201527049442063616e6e6f74206265207a65726f60781b60648201526084015b60405180910390fd5b60648360ff1611156102b75760405162461bcd60e51b815260206004820152603460248201527f46756e64726169736550726564696374696f6e3a2073636f7265206d7573742060448201527306265206265747765656e203020616e64203130360641b606482015260840161023d565b806103175760405162461bcd60e51b815260206004820152602a60248201527f46756e64726169736550726564696374696f6e3a2070726f6f662063616e6e6f6044820152697420626520656d70747960b01b606482015260840161023d565b6000848152602081905260409020546001600160a01b0316156103935760405162461bcd60e51b815260206004820152602e60248201527f46756e64726169736550726564696374696f6e3a2070726564696374696f6e2060448201526d616c72656164792065786973747360901b606482015260840161023d565b6040518060800160405280336001600160a01b031681526020018460ff16815260200142815260200183838080601f01602080910402602001604051908101604052809392919081815260200183838082843760009201829052509390945250508681526020818152604091829020845181549286015160ff16600160a01b026001600160a81b03199093166001600160a01b039091161791909117815590830151600182015560608301519091506002820190610451908261083f565b50506001805491506000610464836108ff565b90915550506040805160ff85168152426020820152339186917fcca1afd4a3366943bf229d27546b1c8a19b1358a03376abf5e79c23c009537a3910160405180910390a350505050565b604080516080810182526000808252602080830182905282840182905260608084015284825281905291909120546001600160a01b03166105485760405162461bcd60e51b815260206004820152602e60248201527f46756e64726169736550726564696374696f6e3a2070726564696374696f6e2060448201526d191bd95cc81b9bdd08195e1a5cdd60921b606482015260840161023d565b60008281526020818152604091829020825160808101845281546001600160a01b0381168252600160a01b900460ff16928101929092526001810154928201929092526002820180549192916060840191906105a3906107a0565b80601f01602080910402602001604051908101604052809291908181526020018280546105cf906107a0565b801561061c5780601f106105f15761010080835404028352916020019161061c565b820191906000526020600020905b8154815290600101906020018083116105ff57829003601f168201915b5050505050815250509050919050565b60006020828403121561063e57600080fd5b5035919050565b6000815180845260005b8181101561066b5760208185018101518683018201520161064f565b506000602082860101526020601f19601f83011685010191505092915050565b60018060a01b038516815260ff841660208201528260408201526080606082015260006106bb6080830184610645565b9695505050505050565b600080600080606085870312156106db57600080fd5b84359350602085013560ff811681146106f357600080fd5b9250604085013567ffffffffffffffff8082111561071057600080fd5b818701915087601f83011261072457600080fd5b81358181111561073357600080fd5b88602082850101111561074557600080fd5b95989497505060200194505050565b6020815260018060a01b03825116602082015260ff6020830151166040820152604082015160608201526000606083015160808084015261079860a0840182610645565b949350505050565b600181811c908216806107b457607f821691505b6020821081036107d457634e487b7160e01b600052602260045260246000fd5b50919050565b634e487b7160e01b600052604160045260246000fd5b601f82111561083a57600081815260208120601f850160051c810160208610156108175750805b601f850160051c820191505b8181101561083657828155600101610823565b5050505b505050565b815167ffffffffffffffff811115610859576108596107da565b61086d8161086784546107a0565b846107f0565b602080601f8311600181146108a2576000841561088a5750858301515b600019600386901b1c1916600185901b178555610836565b600085815260208120601f198616915b828110156108d1578886015182559484019460019091019084016108b2565b50858210156108ef5787850151600019600388901b60f8161c191681555b5050505050600190811b01905550565b60006001820161091f57634e487b7160e01b600052601160045260246000fd5b506001019056fea164736f6c6343000813000a",
  "linkReferences": {},
  "deployedLinkReferences": {}
}