{
  "_format": "hh-sol-artifact-1",
  "contractName": "SuperPagePrediction",
  "sourceName": "contracts/SuperPagePrediction.sol",
  "abi": [
    {
      "inputs": [],
      "stateMutability": "nonpayable",
      "type": "constructor"
    },
    {
      "anonymous": false,
      "inputs": [
        {
          "indexed": true,
          "internalType": "address",
          "name": "previousOwner",
          "type": "address"
        },
        {
          "indexed": true,
          "internalType": "address",
          "name": "newOwner",
          "type": "address"
        }
      ],
      "name": "OwnershipTransferred",
      "type": "event"
    },
    {
      "anonymous": false,
      "inputs": [
        {
          "indexed": true,
          "internalType": "string",
          "name": "projectId",
          "type": "string"
        },
        {
          "indexed": true,
          "internalType": "address",
          "name": "publisher",
          "type": "address"
        },
        {
          "indexed": false,
          "internalType": "uint256",
          "name": "score",
          "type": "uint256"
        },
        {
          "indexed": false,
          "internalType": "uint256",
          "name": "predictionId",
          "type": "uint256"
        }
      ],
      "name": "PredictionPublished",
      "type": "event"
    },
    {
      "anonymous": false,
      "inputs": [
        {
          "indexed": true,
          "internalType": "address",
          "name": "publisher",
          "type": "address"
        },
        {
          "indexed": false,
          "internalType": "bool",
          "name": "authorized",
          "type": "bool"
        }
      ],
      "name": "PublisherAuthorized",
      "type": "event"
    },
    {
      "inputs": [
        {
          "internalType": "address",
          "name": "",
          "type": "address"
        }
      ],
      "name": "authorizedPublishers",
      "outputs": [
        {
          "internalType": "bool",
          "name": "",
          "type": "bool"
        }
      ],
      "stateMutability": "view",
      "type": "function"
    },
    {
      "inputs": [],
      "name": "getOwner",
      "outputs": [
        {
          "internalType": "address",
          "name": "",
          "type": "address"
        }
      ],
      "stateMutability": "view",
      "type": "function"
    },
    {
      "inputs": [
        {
          "internalType": "string",
          "name": "projectId",
          "type": "string"
        }
      ],
      "name": "getPrediction",
      "outputs": [
        {
          "internalType": "uint256",
          "name": "score",
          "type": "uint256"
        },
        {
          "internalType": "bytes32",
          "name": "proofHash",
          "type": "bytes32"
        },
        {
          "internalType": "string",
          "name": "metadata",
          "type": "string"
        },
        {
          "internalType": "uint256",
          "name": "timestamp",
          "type": "uint256"
        },
        {
          "internalType": "address",
          "name": "publisher",
          "type": "address"
        }
      ],
      "stateMutability": "view",
      "type": "function"
    },
    {
      "inputs": [],
      "name": "getTotalPredictions",
      "outputs": [
        {
          "internalType": "uint256",
          "name": "",
          "type": "uint256"
        }
      ],
      "stateMutability": "view",
      "type": "function"
    },
    {
      "inputs": [
        {
          "internalType": "address",
          "name": "publisher",
          "type": "address"
        }
      ],
      "name": "isAuthorizedPublisher",
      "outputs": [
        {
          "internalType": "bool",
          "name": "",
          "type": "bool"
        }
      ],
      "stateMutability": "view",
      "type": "function"
    },
    {
      "inputs": [],
      "name": "owner",
      "outputs": [
        {
          "internalType": "address",
          "name": "",
          "type": "address"
        }
      ],
      "stateMutability": "view",
      "type": "function"
    },
    {
      "inputs": [
        {
          "internalType": "string",
          "name": "projectId",
          "type": "string"
        }
      ],
      "name": "predictionExists",
      "outputs": [
        {
          "internalType": "bool",
          "name": "exists",
          "type": "bool"
        }
      ],
      "stateMutability": "view",
      "type": "function"
    },
    {
      "inputs": [
        {
          "internalType": "string",
          "name": "",
          "type": "string"
        }
      ],
      "name": "predictions",
      "outputs": [
        {
          "internalType": "uint256",
          "name": "score",
          "type": "uint256"
        },
        {
          "internalType": "bytes32",
          "name": "proofHash",
          "type": "bytes32"
        },
        {
          "internalType": "string",
          "name": "metadata",
          "type": "string"
        },
        {
          "internalType": "uint256",
          "name": "timestamp",
          "type": "uint256"
        },
        {
          "internalType": "address",
          "name": "publisher",
          "type": "address"
        },
        {
          "internalType": "bool",
          "name": "exists",
          "type": "bool"
        }
      ],
      "stateMutability": "view",
      "type": "function"
    },
    {
      "inputs": [
        {
          "internalType": "string",
          "name": "projectId",
          "type": "string"
        },
        {
          "internalType": "uint256",
          "name": "score",
          "type": "uint256"
        },
        {
          "internalType": "bytes32",
          "name": "proofHash",
          "type": "bytes32"
        },
        {
          "internalType": "string",
          "name": "metadata",
          "type": "string"
        }
      ],
      "name": "publishPrediction",
      "outputs": [
        {
          "internalType": "uint256",
          "name": "predictionId",
          "type": "uint256"
        }
      ],
      "stateMutability": "nonpayable",
      "type": "function"
    },
    {
      "inputs": [
        {
          "internalType": "address",
          "name": "publisher",
          "type": "address"
        },
        {
          "internalType": "bool",
          "name": "authorized",
          "type": "bool"
        }
      ],
      "name": "setAuthorizedPublisher",
      "outputs": [],
      "stateMutability": "nonpayable",
      "type": "function"
    },
    {
      "inputs": [],
      "name": "totalPredictions",
      "outputs": [
        {
          "internalType": "uint256",
          "name": "",
          "type": "uint256"
        }
      ],
      "stateMutability": "view",
      "type": "function"
    },
    {
      "inputs": [
        {
          "internalType": "address",
          "name": "newOwner",
          "type": "address"
        }
      ],
      "name": "transferOwnership",
      "outputs": [],
      "stateMutability": "nonpayable",
      "type": "function"
    }
  ],
  "bytecode": "0x608060405234801561001057600080fd5b50600280546001600160a01b03191633908117909155600081815260016020818152604092839020805460ff19168317905591519081527f270d6e3779464caa2a2b141f0f9c1a17e85303d2de6a5e1b64b9029452052e9a910160405180910390a26110e1806100816000396000f3fe608060405234801561001057600080fd5b50600436106100b45760003560e01c8063963cc63d11610071578063963cc63d14610159578063ade04dec1461016e578063c6b5c4fc14610181578063e8b348a0146101a5578063f2fde38b146101d1578063f66ad7ea146101e457600080fd5b80635c580061146100b9578063779bd562146100d05780637b4fd3e3146100d957806385495028146100fe578063893d20e8146101215780638da5cb5b14610146575b600080fd5b6003545b6040519081526020015b60405180910390f35b6100bd60035481565b6100ec6100e7366004610c3b565b610207565b6040516100c796959493929190610cc8565b61011161010c366004610c3b565b6102de565b60405190151581526020016100c7565b6002546001600160a01b03165b6040516001600160a01b0390911681526020016100c7565b60025461012e906001600160a01b031681565b61016c610167366004610d2c565b610364565b005b6100bd61017c366004610d68565b61045a565b61019461018f366004610c3b565b6107e4565b6040516100c7959493929190610ddf565b6101116101b3366004610e20565b6001600160a01b031660009081526001602052604090205460ff1690565b61016c6101df366004610e20565b6109c4565b6101116101f2366004610e20565b60016020526000908152604090205460ff1681565b80516020818301810180516000825292820191909301209152805460018201546002830180549293919261023a90610e42565b80601f016020809104026020016040519081016040528092919081815260200182805461026690610e42565b80156102b35780601f10610288576101008083540402835291602001916102b3565b820191906000526020600020905b81548152906001019060200180831161029657829003601f168201915b5050505060038301546004909301549192916001600160a01b0381169150600160a01b900460ff1686565b600081600081511161030b5760405162461bcd60e51b815260040161030290610e76565b60405180910390fd5b60648151111561032d5760405162461bcd60e51b815260040161030290610ec5565b60008360405161033d9190610f0d565b9081526040519081900360200190206004015460ff600160a01b9091041691505b50919050565b6002546001600160a01b0316331461038e5760405162461bcd60e51b815260040161030290610f29565b6001600160a01b0382166103fb5760405162461bcd60e51b815260206004820152602e60248201527f53757065725061676550726564696374696f6e3a20696e76616c69642070756260448201526d6c6973686572206164647265737360901b6064820152608401610302565b6001600160a01b038216600081815260016020908152604091829020805460ff191685151590811790915591519182527f270d6e3779464caa2a2b141f0f9c1a17e85303d2de6a5e1b64b9029452052e9a910160405180910390a25050565b3360009081526001602052604081205460ff168061048257506002546001600160a01b031633145b6104f45760405162461bcd60e51b815260206004820152603860248201527f53757065725061676550726564696374696f6e3a2063616c6c6572206973206e60448201527f6f7420617574686f72697a656420746f207075626c69736800000000000000006064820152608401610302565b8460008151116105165760405162461bcd60e51b815260040161030290610e76565b6064815111156105385760405162461bcd60e51b815260040161030290610ec5565b84670de0b6b3a76400008111156105ad5760405162461bcd60e51b815260206004820152603360248201527f53757065725061676550726564696374696f6e3a2073636f72652063616e6e6f604482015272742065786365656420312e302028316531382960681b6064820152608401610302565b6000876040516105bd9190610f0d565b9081526040519081900360200190206004015460ff600160a01b909104161561064e5760405162461bcd60e51b815260206004820152603f60248201527f53757065725061676550726564696374696f6e3a2070726564696374696f6e2060448201527f616c72656164792065786973747320666f7220746869732070726f6a656374006064820152608401610302565b846106b35760405162461bcd60e51b815260206004820152602f60248201527f53757065725061676550726564696374696f6e3a2070726f6f6620686173682060448201526e63616e6e6f7420626520656d70747960881b6064820152608401610302565b6040805160c08101825287815260208101879052808201869052426060820152336080820152600160a082015290516000906106f0908a90610f0d565b90815260408051602092819003830190208351815591830151600183015582015160028201906107209082610fc4565b50606082015160038083019190915560808301516004909201805460a0909401511515600160a01b026001600160a81b03199094166001600160a01b0390931692909217929092179055805490600061077883611084565b91905055506003549250336001600160a01b03168760405161079a9190610f0d565b6040805191829003822089835260208301879052917f886cbcbfffcbdf18dd3d3a082e25d78cfc5e1dc1f15f739bf9b5c2f3fc78557f910160405180910390a35050949350505050565b600080606060008085600081511161080e5760405162461bcd60e51b815260040161030290610e76565b6064815111156108305760405162461bcd60e51b815260040161030290610ec5565b600080886040516108419190610f0d565b90815260200160405180910390206040518060c0016040529081600082015481526020016001820154815260200160028201805461087e90610e42565b80601f01602080910402602001604051908101604052809291908181526020018280546108aa90610e42565b80156108f75780601f106108cc576101008083540402835291602001916108f7565b820191906000526020600020905b8154815290600101906020018083116108da57829003601f168201915b5050509183525050600382015460208201526004909101546001600160a01b0381166040830152600160a01b900460ff16151560609091015260a081015190915061099b5760405162461bcd60e51b815260206004820152602e60248201527f53757065725061676550726564696374696f6e3a2070726564696374696f6e2060448201526d191bd95cc81b9bdd08195e1a5cdd60921b6064820152608401610302565b8051602082015160408301516060840151608090940151929b919a509850919650945092505050565b6002546001600160a01b031633146109ee5760405162461bcd60e51b815260040161030290610f29565b6001600160a01b038116610a5f5760405162461bcd60e51b815260206004820152603260248201527f53757065725061676550726564696374696f6e3a206e6577206f776e657220696044820152717320746865207a65726f206164647265737360701b6064820152608401610302565b6002546001600160a01b0390811690821603610ae35760405162461bcd60e51b815260206004820152603b60248201527f53757065725061676550726564696374696f6e3a206e6577206f776e6572206960448201527f73207468652073616d652061732063757272656e74206f776e657200000000006064820152608401610302565b600280546001600160a01b038381166001600160a01b031983168117909355600083815260016020818152604092839020805460ff19168317905591519081529190921692917f270d6e3779464caa2a2b141f0f9c1a17e85303d2de6a5e1b64b9029452052e9a910160405180910390a2816001600160a01b0316816001600160a01b03167f8be0079c531659141344cd1fd0a4f28419497f9722a3daafe3b4186f6b6457e060405160405180910390a35050565b634e487b7160e01b600052604160045260246000fd5b600082601f830112610bbf57600080fd5b813567ffffffffffffffff80821115610bda57610bda610b98565b604051601f8301601f19908116603f01168101908282118183101715610c0257610c02610b98565b81604052838152866020858801011115610c1b57600080fd5b836020870160208301376000602085830101528094505050505092915050565b600060208284031215610c4d57600080fd5b813567ffffffffffffffff811115610c6457600080fd5b610c7084828501610bae565b949350505050565b60005b83811015610c93578181015183820152602001610c7b565b50506000910152565b60008151808452610cb4816020860160208601610c78565b601f01601f19169290920160200192915050565b86815285602082015260c060408201526000610ce760c0830187610c9c565b6060830195909552506001600160a01b03929092166080830152151560a0909101529392505050565b80356001600160a01b0381168114610d2757600080fd5b919050565b60008060408385031215610d3f57600080fd5b610d4883610d10565b915060208301358015158114610d5d57600080fd5b809150509250929050565b60008060008060808587031215610d7e57600080fd5b843567ffffffffffffffff80821115610d9657600080fd5b610da288838901610bae565b955060208701359450604087013593506060870135915080821115610dc657600080fd5b50610dd387828801610bae565b91505092959194509250565b85815284602082015260a060408201526000610dfe60a0830186610c9c565b6060830194909452506001600160a01b03919091166080909101529392505050565b600060208284031215610e3257600080fd5b610e3b82610d10565b9392505050565b600181811c90821680610e5657607f821691505b60208210810361035e57634e487b7160e01b600052602260045260246000fd5b6020808252602f908201527f53757065725061676550726564696374696f6e3a2070726f6a6563742049442060408201526e63616e6e6f7420626520656d70747960881b606082015260800190565b60208082526028908201527f53757065725061676550726564696374696f6e3a2070726f6a65637420494420604082015267746f6f206c6f6e6760c01b606082015260800190565b60008251610f1f818460208701610c78565b9190910192915050565b6020808252602c908201527f53757065725061676550726564696374696f6e3a2063616c6c6572206973206e60408201526b37ba103a34329037bbb732b960a11b606082015260800190565b601f821115610fbf57600081815260208120601f850160051c81016020861015610f9c5750805b601f850160051c820191505b81811015610fbb57828155600101610fa8565b5050505b505050565b815167ffffffffffffffff811115610fde57610fde610b98565b610ff281610fec8454610e42565b84610f75565b602080601f831160018114611027576000841561100f5750858301515b600019600386901b1c1916600185901b178555610fbb565b600085815260208120601f198616915b8281101561105657888601518255948401946001909101908401611037565b50858210156110745787850151600019600388901b60f8161c191681555b5050505050600190811b01905550565b6000600182016110a457634e487b7160e01b600052601160045260246000fd5b506001019056fea2646970667358221220814bd6ba17702e10426f0b059cf600817d31e45d293976ce764c38abc1c95a8464736f6c63430008130033",
  "linkReferences": {},
  "deployedLinkReferences": {}
}